{
  "_format": "hh-sol-artifact-1",
  "contractName": "Exchange",
  "sourceName": "contracts/Exchange.sol",
  "abi": [
    {
      "anonymous": false,
      "inputs": [
        {
          "indexed": true,
          "internalType": "string",
          "name": "aggregatorId",
          "type": "string"
        }
      ],
      "name": "AdapterRemoved",
      "type": "event"
    },
    {
      "anonymous": false,
      "inputs": [
        {
          "indexed": true,
          "internalType": "string",
          "name": "aggregatorId",
          "type": "string"
        },
        {
          "indexed": true,
          "internalType": "address",
          "name": "addr",
          "type": "address"
        }
      ],
      "name": "AdapterSet",
      "type": "event"
    },
    {
      "anonymous": false,
      "inputs": [
        {
          "indexed": true,
          "internalType": "address",
          "name": "previousOwner",
          "type": "address"
        },
        {
          "indexed": true,
          "internalType": "address",
          "name": "newOwner",
          "type": "address"
        }
      ],
      "name": "OwnershipTransferred",
      "type": "event"
    },
    {
      "anonymous": false,
      "inputs": [
        {
          "indexed": false,
          "internalType": "address",
          "name": "account",
          "type": "address"
        }
      ],
      "name": "Paused",
      "type": "event"
    },
    {
      "anonymous": false,
      "inputs": [
        {
          "indexed": true,
          "internalType": "string",
          "name": "aggregatorId",
          "type": "string"
        },
        {
          "indexed": true,
          "internalType": "address",
          "name": "sender",
          "type": "address"
        },
        {
          "indexed": false,
          "internalType": "contract IERC20",
          "name": "tokenFrom",
          "type": "address"
        },
        {
          "indexed": false,
          "internalType": "contract IERC20",
          "name": "tokenTo",
          "type": "address"
        },
        {
          "indexed": false,
          "internalType": "uint256",
          "name": "amountFrom",
          "type": "uint256"
        },
        {
          "indexed": false,
          "internalType": "uint256",
          "name": "amountTo",
          "type": "uint256"
        }
      ],
      "name": "Swap",
      "type": "event"
    },
    {
      "anonymous": false,
      "inputs": [
        {
          "indexed": false,
          "internalType": "address",
          "name": "account",
          "type": "address"
        }
      ],
      "name": "Unpaused",
      "type": "event"
    },
    {
      "inputs": [
        {
          "internalType": "string",
          "name": "aggregatorId",
          "type": "string"
        }
      ],
      "name": "adapterFee",
      "outputs": [
        {
          "internalType": "uint8",
          "name": "fee",
          "type": "uint8"
        }
      ],
      "stateMutability": "view",
      "type": "function"
    },
    {
      "inputs": [
        {
          "internalType": "string",
          "name": "",
          "type": "string"
        }
      ],
      "name": "adapterRemoved",
      "outputs": [
        {
          "internalType": "bool",
          "name": "",
          "type": "bool"
        }
      ],
      "stateMutability": "view",
      "type": "function"
    },
    {
      "inputs": [
        {
          "internalType": "string",
          "name": "",
          "type": "string"
        }
      ],
      "name": "adapters",
      "outputs": [
        {
          "internalType": "address",
          "name": "",
          "type": "address"
        }
      ],
      "stateMutability": "view",
      "type": "function"
    },
    {
      "inputs": [],
      "name": "owner",
      "outputs": [
        {
          "internalType": "address",
          "name": "",
          "type": "address"
        }
      ],
      "stateMutability": "view",
      "type": "function"
    },
    {
      "inputs": [],
      "name": "pauseSwaps",
      "outputs": [],
      "stateMutability": "nonpayable",
      "type": "function"
    },
    {
      "inputs": [],
      "name": "paused",
      "outputs": [
        {
          "internalType": "bool",
          "name": "",
          "type": "bool"
        }
      ],
      "stateMutability": "view",
      "type": "function"
    },
    {
      "inputs": [
        {
          "internalType": "string",
          "name": "aggregatorId",
          "type": "string"
        }
      ],
      "name": "removeAdapter",
      "outputs": [],
      "stateMutability": "nonpayable",
      "type": "function"
    },
    {
      "inputs": [],
      "name": "renounceOwnership",
      "outputs": [],
      "stateMutability": "nonpayable",
      "type": "function"
    },
    {
      "inputs": [
        {
          "internalType": "string",
          "name": "aggregatorId",
          "type": "string"
        },
        {
          "internalType": "address",
          "name": "addr",
          "type": "address"
        }
      ],
      "name": "setAdapter",
      "outputs": [],
      "stateMutability": "nonpayable",
      "type": "function"
    },
    {
      "inputs": [
        {
          "internalType": "string[]",
          "name": "aggregatorsId",
          "type": "string[]"
        },
        {
          "internalType": "contract IERC20",
          "name": "tokenFrom",
          "type": "address"
        },
        {
          "internalType": "contract IERC20",
          "name": "tokenTo",
          "type": "address"
        },
        {
          "internalType": "uint256[]",
          "name": "amountsFrom",
          "type": "uint256[]"
        },
        {
          "internalType": "uint256[]",
          "name": "amountsTo",
          "type": "uint256[]"
        },
        {
          "internalType": "uint256",
          "name": "deadline",
          "type": "uint256"
        },
        {
          "internalType": "bool",
          "name": "feeOnTransfer",
          "type": "bool"
        }
      ],
      "name": "splitSwap",
      "outputs": [],
      "stateMutability": "payable",
      "type": "function"
    },
    {
      "inputs": [
        {
          "internalType": "string",
          "name": "aggregatorId",
          "type": "string"
        },
        {
          "internalType": "contract IERC20",
          "name": "tokenFrom",
          "type": "address"
        },
        {
          "internalType": "contract IERC20",
          "name": "tokenTo",
          "type": "address"
        },
        {
          "internalType": "uint256",
          "name": "amountFrom",
          "type": "uint256"
        },
        {
          "internalType": "uint256",
          "name": "amountTo",
          "type": "uint256"
        },
        {
          "internalType": "uint256",
          "name": "deadline",
          "type": "uint256"
        },
        {
          "internalType": "bool",
          "name": "feeOnTransfer",
          "type": "bool"
        }
      ],
      "name": "swap",
      "outputs": [],
      "stateMutability": "payable",
      "type": "function"
    },
    {
      "inputs": [
        {
          "internalType": "address",
          "name": "newOwner",
          "type": "address"
        }
      ],
      "name": "transferOwnership",
      "outputs": [],
      "stateMutability": "nonpayable",
      "type": "function"
    },
    {
      "inputs": [],
      "name": "unpauseSwaps",
      "outputs": [],
      "stateMutability": "nonpayable",
      "type": "function"
    }
  ],
  "bytecode": "0x608060405234801561001057600080fd5b5061001a33610030565b6000805460ff60a01b1916905560018055610080565b600080546001600160a01b038381166001600160a01b0319831681178455604051919092169283917f8be0079c531659141344cd1fd0a4f28419497f9722a3daafe3b4186f6b6457e09190a35050565b6115dd8061008f6000396000f3fe6080604052600436106100d25760003560e01c80639804a3801161007f578063b526838911610059578063b5268389146101e0578063b84f5d1e1461021b578063bad50a471461025c578063f2fde38b1461028e57600080fd5b80639804a380146101a5578063a12e7c18146101ba578063ae5ba2ae146101cd57600080fd5b80635c975abb116100b05780635c975abb1461012e578063715018a61461015e5780638da5cb5b1461017357600080fd5b806339122461146100d75780633ef11fd7146100f9578063558b7dd114610119575b600080fd5b3480156100e357600080fd5b506100f76100f2366004611105565b6102ae565b005b34801561010557600080fd5b506100f761011436600461115c565b610493565b34801561012557600080fd5b506100f76105cf565b34801561013a57600080fd5b50600054600160a01b900460ff165b60405190151581526020015b60405180910390f35b34801561016a57600080fd5b506100f76105e1565b34801561017f57600080fd5b506000546001600160a01b03165b6040516001600160a01b039091168152602001610155565b3480156101b157600080fd5b506100f76105f3565b6100f76101c8366004611201565b610603565b6100f76101db3660046112dd565b610753565b3480156101ec57600080fd5b506101496101fb36600461138c565b805160208183018101805160038252928201919093012091525460ff1681565b34801561022757600080fd5b5061018d61023636600461138c565b80516020818301810180516002825292820191909301209152546001600160a01b031681565b34801561026857600080fd5b5061027c61027736600461115c565b610809565b60405160ff9091168152602001610155565b34801561029a57600080fd5b506100f76102a936600461143d565b610932565b6000816001600160a01b03163b1161030d5760405162461bcd60e51b815260206004820152601f60248201527f457461537761703a20414441505445525f4e4f545f415f434f4e54524143540060448201526064015b60405180910390fd5b6003838360405161031f92919061145a565b9081526040519081900360200190205460ff161561037f5760405162461bcd60e51b815260206004820152601860248201527f457461537761703a20414441505445525f52454d4f56454400000000000000006044820152606401610304565b60006001600160a01b03166002848460405161039c92919061145a565b908152604051908190036020019020546001600160a01b0316146104025760405162461bcd60e51b815260206004820152601760248201527f457461537761703a20414441505445525f4558495354530000000000000000006044820152606401610304565b806002848460405161041592919061145a565b90815260405190819003602001812080546001600160a01b0393841673ffffffffffffffffffffffffffffffffffffffff199091161790559082169061045e908590859061145a565b604051908190038120907ff9648cbc19f288e0f271f7e95311238912bf1ea8225e636a13bb1d259126002190600090a3505050565b61049b6109c2565b60006001600160a01b0316600283836040516104b892919061145a565b908152604051908190036020019020546001600160a01b03160361051e5760405162461bcd60e51b815260206004820152601f60248201527f457461537761703a20414441505445525f444f45535f4e4f545f4558495354006044820152606401610304565b6002828260405161053092919061145a565b908152604051908190036020018120805473ffffffffffffffffffffffffffffffffffffffff1916905560019060039061056d908590859061145a565b908152604051908190036020018120805492151560ff199093169290921790915561059b908390839061145a565b604051908190038120907fb00061f7cc154fc23eb34671ab724fc7eb7b806abae871abae8f1eafce97213590600090a25050565b6105d76109c2565b6105df610a1c565b565b6105e96109c2565b6105df6000610a7c565b6105fb6109c2565b6105df610ad9565b61060b610b15565b610613610b6f565b60005b60ff81168a111561073d57600060028c8c60ff851681811061063a5761063a61146a565b905060200281019061064c9190611480565b60405161065a92919061145a565b908152604051908190036020019020546001600160a01b0316036106c05760405162461bcd60e51b815260206004820152601f60248201527f457461537761703a20414441505445525f444f45535f4e4f545f4558495354006044820152606401610304565b61072b8b8b8360ff168181106106d8576106d861146a565b90506020028101906106ea9190611480565b8b8b8b8b8760ff168181106107015761070161146a565b905060200201358a8a8860ff1681811061071d5761071d61146a565b905060200201358989610bc8565b80610735816114c7565b915050610616565b5061074760018055565b50505050505050505050565b61075b610b15565b610763610b6f565b60006001600160a01b03166002898960405161078092919061145a565b908152604051908190036020019020546001600160a01b0316036107e65760405162461bcd60e51b815260206004820152601f60248201527f457461537761703a20414441505445525f444f45535f4e4f545f4558495354006044820152606401610304565b6107f68888888888888888610bc8565b6107ff60018055565b5050505050505050565b6000806001600160a01b03166002848460405161082792919061145a565b908152604051908190036020019020546001600160a01b03160361088d5760405162461bcd60e51b815260206004820152601f60248201527f457461537761703a20414441505445525f444f45535f4e4f545f4558495354006044820152606401610304565b6002838360405161089f92919061145a565b9081526040805160209281900383018120547fdc3ef68500000000000000000000000000000000000000000000000000000000825291516001600160a01b039092169263dc3ef685926004808401938290030181865afa158015610907573d6000803e3d6000fd5b505050506040513d601f19601f8201168201806040525081019061092b91906114f4565b9392505050565b61093a6109c2565b6001600160a01b0381166109b65760405162461bcd60e51b815260206004820152602660248201527f4f776e61626c653a206e6577206f776e657220697320746865207a65726f206160448201527f64647265737300000000000000000000000000000000000000000000000000006064820152608401610304565b6109bf81610a7c565b50565b6000546001600160a01b031633146105df5760405162461bcd60e51b815260206004820181905260248201527f4f776e61626c653a2063616c6c6572206973206e6f7420746865206f776e65726044820152606401610304565b610a24610b15565b6000805460ff60a01b1916600160a01b1790557f62e78cea01bee320cd4e420270b5ea74000d11b0c9f74754ebdbfc544b05a258610a5f3390565b6040516001600160a01b03909116815260200160405180910390a1565b600080546001600160a01b0383811673ffffffffffffffffffffffffffffffffffffffff19831681178455604051919092169283917f8be0079c531659141344cd1fd0a4f28419497f9722a3daafe3b4186f6b6457e09190a35050565b610ae1610d2c565b6000805460ff60a01b191690557f5db9ee0a495bf2e6ff9c91a7834c1ba4fdd244a5e8aa4e537bd38aeae4b073aa33610a5f565b600054600160a01b900460ff16156105df5760405162461bcd60e51b815260206004820152601060248201527f5061757361626c653a20706175736564000000000000000000000000000000006044820152606401610304565b600260015403610bc15760405162461bcd60e51b815260206004820152601f60248201527f5265656e7472616e637947756172643a207265656e7472616e742063616c6c006044820152606401610304565b6002600155565b600060028989604051610bdc92919061145a565b908152604051908190036020019020546001600160a01b039081169150871615610c1557610c156001600160a01b038816338388610d85565b6040517f77e389660000000000000000000000000000000000000000000000000000000081523360048201526001600160a01b0388811660248301528781166044830152606482018790526084820186905260a4820185905283151560c48301528216906377e3896690349060e4016000604051808303818588803b158015610c9d57600080fd5b505af1158015610cb1573d6000803e3d6000fd5b5050604051339350610cc892508c91508b9061145a565b604080519182900382206001600160a01b03808c1684528a16602084015290820188905260608201879052907f03f2d500426f74468ac55e19ccd9b4f875657096dc1fd60948652f3ffd0ca23f9060800160405180910390a3505050505050505050565b600054600160a01b900460ff166105df5760405162461bcd60e51b815260206004820152601460248201527f5061757361626c653a206e6f74207061757365640000000000000000000000006044820152606401610304565b604080516001600160a01b0385811660248301528416604482015260648082018490528251808303909101815260849091019091526020810180517bffffffffffffffffffffffffffffffffffffffffffffffffffffffff167f23b872dd00000000000000000000000000000000000000000000000000000000179052610e0d908590610e13565b50505050565b6000610e68826040518060400160405280602081526020017f5361666545524332303a206c6f772d6c6576656c2063616c6c206661696c6564815250856001600160a01b0316610f009092919063ffffffff16565b9050805160001480610e89575080806020019051810190610e899190611517565b610efb5760405162461bcd60e51b815260206004820152602a60248201527f5361666545524332303a204552433230206f7065726174696f6e20646964206e60448201527f6f742073756363656564000000000000000000000000000000000000000000006064820152608401610304565b505050565b6060610f0f8484600085610f17565b949350505050565b606082471015610f8f5760405162461bcd60e51b815260206004820152602660248201527f416464726573733a20696e73756666696369656e742062616c616e636520666f60448201527f722063616c6c00000000000000000000000000000000000000000000000000006064820152608401610304565b600080866001600160a01b03168587604051610fab9190611558565b60006040518083038185875af1925050503d8060008114610fe8576040519150601f19603f3d011682016040523d82523d6000602084013e610fed565b606091505b5091509150610ffe87838387611009565b979650505050505050565b60608315611078578251600003611071576001600160a01b0385163b6110715760405162461bcd60e51b815260206004820152601d60248201527f416464726573733a2063616c6c20746f206e6f6e2d636f6e74726163740000006044820152606401610304565b5081610f0f565b610f0f838381511561108d5781518083602001fd5b8060405162461bcd60e51b81526004016103049190611574565b60008083601f8401126110b957600080fd5b50813567ffffffffffffffff8111156110d157600080fd5b6020830191508360208285010111156110e957600080fd5b9250929050565b6001600160a01b03811681146109bf57600080fd5b60008060006040848603121561111a57600080fd5b833567ffffffffffffffff81111561113157600080fd5b61113d868287016110a7565b9094509250506020840135611151816110f0565b809150509250925092565b6000806020838503121561116f57600080fd5b823567ffffffffffffffff81111561118657600080fd5b611192858286016110a7565b90969095509350505050565b60008083601f8401126111b057600080fd5b50813567ffffffffffffffff8111156111c857600080fd5b6020830191508360208260051b85010111156110e957600080fd5b80151581146109bf57600080fd5b80356111fc816111e3565b919050565b60008060008060008060008060008060e08b8d03121561122057600080fd5b8a3567ffffffffffffffff8082111561123857600080fd5b6112448e838f0161119e565b909c509a5060208d01359150611259826110f0565b90985060408c01359061126b826110f0565b90975060608c0135908082111561128157600080fd5b61128d8e838f0161119e565b909850965060808d01359150808211156112a657600080fd5b506112b38d828e0161119e565b90955093505060a08b013591506112cc60c08c016111f1565b90509295989b9194979a5092959850565b60008060008060008060008060e0898b0312156112f957600080fd5b883567ffffffffffffffff81111561131057600080fd5b61131c8b828c016110a7565b9099509750506020890135611330816110f0565b95506040890135611340816110f0565b9450606089013593506080890135925060a0890135915060c0890135611365816111e3565b809150509295985092959890939650565b634e487b7160e01b600052604160045260246000fd5b60006020828403121561139e57600080fd5b813567ffffffffffffffff808211156113b657600080fd5b818401915084601f8301126113ca57600080fd5b8135818111156113dc576113dc611376565b604051601f8201601f19908116603f0116810190838211818310171561140457611404611376565b8160405282815287602084870101111561141d57600080fd5b826020860160208301376000928101602001929092525095945050505050565b60006020828403121561144f57600080fd5b813561092b816110f0565b8183823760009101908152919050565b634e487b7160e01b600052603260045260246000fd5b6000808335601e1984360301811261149757600080fd5b83018035915067ffffffffffffffff8211156114b257600080fd5b6020019150368190038213156110e957600080fd5b600060ff821660ff81036114eb57634e487b7160e01b600052601160045260246000fd5b60010192915050565b60006020828403121561150657600080fd5b815160ff8116811461092b57600080fd5b60006020828403121561152957600080fd5b815161092b816111e3565b60005b8381101561154f578181015183820152602001611537565b50506000910152565b6000825161156a818460208701611534565b9190910192915050565b6020815260008251806020840152611593816040850160208701611534565b601f01601f1916919091016040019291505056fea2646970667358221220fc751851cc1c2bda785938b88944e9ebb1a85f4d0eeff5e0445b838dd165a58864736f6c63430008130033",
  "linkReferences": {},
  "deployedLinkReferences": {}
}